{
  "contractName": "SumsToFifteen",
  "abi": [
    {
      "constant": true,
      "inputs": [],
      "name": "success",
      "outputs": [
        {
          "name": "",
          "type": "bool"
        }
      ],
      "payable": false,
      "stateMutability": "view",
      "type": "function"
    },
    {
      "constant": false,
      "inputs": [
        {
          "name": "data",
          "type": "bytes32"
        }
      ],
      "name": "bytes32ToString",
      "outputs": [
        {
          "name": "",
          "type": "string"
        }
      ],
      "payable": false,
      "stateMutability": "nonpayable",
      "type": "function"
    },
    {
      "constant": false,
      "inputs": [
        {
          "name": "a",
          "type": "uint256[2]"
        },
        {
          "name": "a_p",
          "type": "uint256[2]"
        },
        {
          "name": "b",
          "type": "uint256[2][2]"
        },
        {
          "name": "b_p",
          "type": "uint256[2]"
        },
        {
          "name": "c",
          "type": "uint256[2]"
        },
        {
          "name": "c_p",
          "type": "uint256[2]"
        },
        {
          "name": "h",
          "type": "uint256[2]"
        },
        {
          "name": "k",
          "type": "uint256[2]"
        },
        {
          "name": "input",
          "type": "uint256[2]"
        }
      ],
      "name": "verifyTx",
      "outputs": [
        {
          "name": "r",
          "type": "bool"
        }
      ],
      "payable": false,
      "stateMutability": "nonpayable",
      "type": "function"
    },
    {
      "anonymous": false,
      "inputs": [
        {
          "indexed": false,
          "name": "",
          "type": "string"
        }
      ],
      "name": "Trace0",
      "type": "event"
    },
    {
      "anonymous": false,
      "inputs": [
        {
          "indexed": false,
          "name": "",
          "type": "string"
        }
      ],
      "name": "Trace",
      "type": "event"
    },
    {
      "anonymous": false,
      "inputs": [
        {
          "indexed": false,
          "name": "",
          "type": "string"
        },
        {
          "indexed": false,
          "name": "",
          "type": "string"
        }
      ],
      "name": "Trace1",
      "type": "event"
    },
    {
      "anonymous": false,
      "inputs": [
        {
          "indexed": false,
          "name": "",
          "type": "string"
        }
      ],
      "name": "Verified",
      "type": "event"
    },
    {
      "constant": false,
      "inputs": [
        {
          "name": "a",
          "type": "uint256[2]"
        },
        {
          "name": "a_p",
          "type": "uint256[2]"
        },
        {
          "name": "b",
          "type": "uint256[2][2]"
        },
        {
          "name": "b_p",
          "type": "uint256[2]"
        },
        {
          "name": "c",
          "type": "uint256[2]"
        },
        {
          "name": "c_p",
          "type": "uint256[2]"
        },
        {
          "name": "h",
          "type": "uint256[2]"
        },
        {
          "name": "k",
          "type": "uint256[2]"
        },
        {
          "name": "input",
          "type": "uint256[2]"
        }
      ],
      "name": "verifyFifteen",
      "outputs": [],
      "payable": false,
      "stateMutability": "nonpayable",
      "type": "function"
    },
    {
      "constant": true,
      "inputs": [],
      "name": "get",
      "outputs": [
        {
          "name": "retVal",
          "type": "bool"
        }
      ],
      "payable": false,
      "stateMutability": "view",
      "type": "function"
    }
  ],
  "bytecode": "0x606060405260008060006101000a81548160ff021916908315150217905550341561002957600080fd5b61215c806100386000396000f30060606040526004361061006d576000357c0100000000000000000000000000000000000000000000000000000000900463ffffffff1680630b93381b146100725780634a06460b1461009f5780636d4ce63c1461027d5780639201de55146102aa578063fe01ff621461034a575b600080fd5b341561007d57600080fd5b610085610540565b604051808215151515815260200191505060405180910390f35b34156100aa57600080fd5b61027b600480806040019060028060200260405190810160405280929190826002602002808284378201915050505050919080604001906002806020026040519081016040528092919082600260200280828437820191505050505091908060800190600280602002604051908101604052809291906000905b82821015610166578382604002016002806020026040519081016040528092919082600260200280828437820191505050505081526020019060010190610124565b5050505091908060400190600280602002604051908101604052809291908260026020028082843782019150505050509190806040019060028060200260405190810160405280929190826002602002808284378201915050505050919080604001906002806020026040519081016040528092919082600260200280828437820191505050505091908060400190600280602002604051908101604052809291908260026020028082843782019150505050509190806040019060028060200260405190810160405280929190826002602002808284378201915050505050919080604001906002806020026040519081016040528092919082600260200280828437820191505050505091905050610552565b005b341561028857600080fd5b6102906105ee565b604051808215151515815260200191505060405180910390f35b34156102b557600080fd5b6102cf600480803560001916906020019091905050610604565b6040518080602001828103825283818151815260200191508051906020019080838360005b8381101561030f5780820151818401526020810190506102f4565b50505050905090810190601f16801561033c5780820380516001836020036101000a031916815260200191505b509250505060405180910390f35b341561035557600080fd5b610526600480806040019060028060200260405190810160405280929190826002602002808284378201915050505050919080604001906002806020026040519081016040528092919082600260200280828437820191505050505091908060800190600280602002604051908101604052809291906000905b828210156104115783826040020160028060200260405190810160405280929190826002602002808284378201915050505050815260200190600101906103cf565b5050505091908060400190600280602002604051908101604052809291908260026020028082843782019150505050509190806040019060028060200260405190810160405280929190826002602002808284378201915050505050919080604001906002806020026040519081016040528092919082600260200280828437820191505050505091908060400190600280602002604051908101604052809291908260026020028082843782019150505050509190806040019060028060200260405190810160405280929190826002602002808284378201915050505050919080604001906002806020026040519081016040528092919082600260200280828437820191505050505091905050610703565b604051808215151515815260200191505060405180910390f35b6000809054906101000a900460ff1681565b7f5dfd506b909f1e3e0e72bfc16e9c040380f98ad686bb0fcbadfed0a538ce66816040518080602001828103825260058152602001807f3e3e3e2d3100000000000000000000000000000000000000000000000000000081525060200191505060405180910390a16105cb898989898989898989610703565b6000806101000a81548160ff021916908315150217905550505050505050505050565b60008060009054906101000a900460ff16905090565b61060c611eab565b610614611ebf565b60008060206040518059106106265750595b9080825280601f01601f19166020018201604052509250600091505b60208210156106f8578160080260020a856001900402600102905060007f010000000000000000000000000000000000000000000000000000000000000002817effffffffffffffffffffffffffffffffffffffffffffffffffffffffffffff19161415156106eb578083838151811015156106ba57fe5b9060200101907effffffffffffffffffffffffffffffffffffffffffffffffffffffffffffff1916908160001a9053505b8180600101925050610642565b829350505050919050565b600061070d611ed3565b610715611f49565b60007f7adc5036d5bad8cf66a51e728dab88eb1836a29bceecde48eb34d5bf1cd4d2836040518080602001828103825260058152602001807f3e3e3e3e3000000000000000000000000000000000000000000000000000000081525060200191505060405180910390a160408051908101604052808e600060028110151561079957fe5b602002015181526020018e60016002811015156107b257fe5b6020020151815250836000018190525060408051908101604052808d60006002811015156107dc57fe5b602002015181526020018d60016002811015156107f557fe5b60200201518152508360200181905250604080519081016040528060408051908101604052808e600060028110151561082a57fe5b6020020151600060028110151561083d57fe5b602002015181526020018e600060028110151561085657fe5b6020020151600160028110151561086957fe5b6020020151815250815260200160408051908101604052808e600160028110151561089057fe5b602002015160006002811015156108a357fe5b602002015181526020018e60016002811015156108bc57fe5b602002015160016002811015156108cf57fe5b6020020151815250815250836040018190525060408051908101604052808b60006002811015156108fc57fe5b602002015181526020018b600160028110151561091557fe5b6020020151815250836060018190525060408051908101604052808a600060028110151561093f57fe5b602002015181526020018a600160028110151561095857fe5b60200201518152508360800181905250604080519081016040528089600060028110151561098257fe5b6020020151815260200189600160028110151561099b57fe5b60200201518152508360a0018190525060408051908101604052808860006002811015156109c557fe5b602002015181526020018860016002811015156109de57fe5b60200201518152508360e001819052506040805190810160405280876000600281101515610a0857fe5b60200201518152602001876001600281101515610a2157fe5b60200201518152508360c001819052506002604051805910610a405750595b90808252806020026020018201604052509150600090505b6002811015610a9d578481600281101515610a6f57fe5b60200201518282815181101515610a8257fe5b90602001906020020181815250508080600101915050610a58565b7f7adc5036d5bad8cf66a51e728dab88eb1836a29bceecde48eb34d5bf1cd4d2836040518080602001828103825260078152602001807f3e3e3e3e302e350000000000000000000000000000000000000000000000000081525060200191505060405180910390a16000610b118385610bc3565b1415610bae577f3f3cfdb26fb5f9f1786ab4f1a1f9cd4c0b5e726cbdfc26e495261731aad44e396040518080602001828103825260228152602001807f5472616e73616374696f6e207375636365737366756c6c79207665726966696581526020017f642e00000000000000000000000000000000000000000000000000000000000081525060400191505060405180910390a160019350610bb3565b600093505b5050509998505050505050505050565b6000610bcd611f5d565b610bd5611fd3565b6000610bdf611eab565b610be7611087565b93508360e00151516001885101141515610c0057600080fd5b7f7adc5036d5bad8cf66a51e728dab88eb1836a29bceecde48eb34d5bf1cd4d2836040518080602001828103825260058152602001807f3e3e3e3e3100000000000000000000000000000000000000000000000000000081525060200191505060405180910390a1604080519081016040528060008152602001600081525092507f7adc5036d5bad8cf66a51e728dab88eb1836a29bceecde48eb34d5bf1cd4d2836040518080602001828103825260058152602001807f3e3e3e3e3200000000000000000000000000000000000000000000000000000081525060200191505060405180910390a1600091505b8651821015610d3c576040805190810160405280600681526020017f3e3e3e3e332e000000000000000000000000000000000000000000000000000081525090508180600101925050610cee565b7f412e6975abf1020f04b88c629535ce8ce9e85e5c533f21d5c99699063987cc1481610d6a84600102610604565b604051808060200180602001838103835285818151815260200191508051906020019080838360005b83811015610dae578082015181840152602081019050610d93565b50505050905090810190601f168015610ddb5780820380516001836020036101000a031916815260200191505b50838103825284818151815260200191508051906020019080838360005b83811015610e14578082015181840152602081019050610df9565b50505050905090810190601f168015610e415780820380516001836020036101000a031916815260200191505b5094505050505060405180910390a1610e9883610e938660e0015160018601815181101515610e6c57fe5b906020019060200201518a86815181101515610e8457fe5b906020019060200201516116d1565b61176d565b92507f7adc5036d5bad8cf66a51e728dab88eb1836a29bceecde48eb34d5bf1cd4d2836040518080602001828103825260058152602001807f3e3e3e3e3400000000000000000000000000000000000000000000000000000081525060200191505060405180910390a1610f28838560e001516000815181101515610f1957fe5b9060200190602002015161176d565b9250610f5186600001518560000151610f44896020015161182a565b610f4c6118c5565b61198f565b1515610f60576001945061107d565b610f8784602001518760400151610f7a896060015161182a565b610f826118c5565b61198f565b1515610f96576002945061107d565b610fbd86608001518560400151610fb08960a0015161182a565b610fb86118c5565b61198f565b1515610fcc576003945061107d565b6110188660c001518560600151610ffc610ff787610ff28c600001518d6080015161176d565b61176d565b61182a565b8760a0015161100e896080015161182a565b8b60400151611abb565b1515611027576004945061107d565b61106961103884886000015161176d565b876040015161104a8960e0015161182a565b8760c0015161105c8b6080015161182a565b6110646118c5565b611abb565b1515611078576005945061107d565b600094505b5050505092915050565b61108f611f5d565b604080519081016040528060408051908101604052807f2f66e7ff688469322c2254b8bbc0e0fdbf7d1724fac53cdba8c9969a16d9d9d981526020017f1a62450c530315eeadab091a64aa395eaf393a1dc10cdfb83537b902c971c707815250815260200160408051908101604052807f1b6cf2c7469f81b217f33be0a6cd9abcabd229e9dcabcdcbbd6f7460198ff84581526020017f01dd070f36af8b77967bab6e772b4d1cf23cfa1f94bbd768b9587131f65def8d815250815250816000018190525060408051908101604052807f0efc4761f3e44ef7edb536e906511c1d25236a0fdd7ceecce0acda3fd15edb7b81526020017f26b985370f3bb9002699e1957104d30ffe2f31e05cdfd66630e4a1d73c3be6868152508160200181905250604080519081016040528060408051908101604052807f19e9c6a4a0e7ff88bcbc91e2c7c15fa75b9ddba23fbacab0aa97bec1fb70d95381526020017f1df3c2162a1662bceacbf359f3a4a202924c6cdc6bd716ad3b67640066c0dc10815250815260200160408051908101604052807f0d433f92acbc2e5cab812e5d9a5d8777fbe893c8e7706b0c0158d73d952d422281526020017f0c3849213d40741ebfe767f02bcd7da911670ad011ed4ddb3099d919b345dc6b8152508152508160400181905250604080519081016040528060408051908101604052807f1d807519887eb1a0677889edf1fa8d469c28cab218217b257730b97f4bf0175f81526020017f24d154e99397210bd547665fb932c4b100ff432e36861e64f5e0ba0928b34cf3815250815260200160408051908101604052807f1ee5610f378d97c83295de0aeb385d56a6858fa972d46d7c72c6d0ef5e9c2aa081526020017f19e96768cd1ba3f86e9df221032e7634e9a635d42f8e223906063d1338d6cbf9815250815250816060018190525060408051908101604052807f0c97ba7bacc77e3da24e42b26c6b744f6e4fd6dfac5f4b47a51822da3261ac8381526020017f204f7bfb6c99f43e69583ef7546160ca291fc18e248686c9c14fe54410becfc78152508160800181905250604080519081016040528060408051908101604052807f2a2728c19b73c4a74a920091f4476c59c24a226b3e2cb558fee3b611495262a581526020017f0cd3360753368467914a7ef9469a097254ad888533adaff5ba7b8b5a15162ae0815250815260200160408051908101604052807ee6a2db53c0f7d8299ca24dcdf9c6ea7add0959ecb961dffbcb5c6c5a7f875f81526020017f19704420c5236c1a25fa69372dd6414c54f50cd5a571aa3b4d3803a44baae6288152508152508160a00181905250604080519081016040528060408051908101604052807f0104de5eca71d065754305f2b9a4514fff58a2f2ce41c2be20c7da645743290381526020017f2eb4478a028ee5cabf9985d49875e1cb6ba7bf83dec01ebe3d3cd5f81e921692815250815260200160408051908101604052807f178d8c34ecbef20c5eb490067ab177341443302f46f9f793d7991f0b98df659381526020017f0d82b1a8d5797463df9acd3c297f3bc17e653ee932ab7dc5a11907caea74a4498152508152508160c0018190525060036040518059106115305750595b90808252806020026020018201604052801561156657816020015b611553611fed565b81526020019060019003908161154b5790505b508160e0018190525060408051908101604052807f0baba5f191ca0f6c31bcc227627a53b0df8c27847c9143b22f4d010e092ec45381526020017f17da81fe6bb2de228f6f8d2f55f6ef0ffbf846d6354051924aaca1f86daf1b398152508160e0015160008151811015156115d757fe5b9060200190602002018190525060408051908101604052807f108e8503681a49c3f1cbbc992c4eea806c4aaefb6fb9d4ad42d137c78634bdd681526020017f098265dbcdbcd898a020751a92488e49e5f6c6269fa94b588e533225c7bef6668152508160e00151600181518110151561164c57fe5b9060200190602002018190525060408051908101604052807f25feb1b66e389461bbef0b975bed920a275ba4000300a5f246ee919a2bfaeade81526020017f1c8526385efd023fc71401e77dc3018a8448cf07467a7fb3883d3e41bfeb4bc58152508160e0015160028151811015156116c157fe5b9060200190602002018190525090565b6116d9611fd3565b6116e1612007565b600084600001518260006003811015156116f757fe5b602002018181525050846020015182600160038110151561171457fe5b6020020181815250508382600260038110151561172d57fe5b602002018181525050606083608084600060076107d05a03f19050806000811461175657611758565bfe5b5080151561176557600080fd5b505092915050565b611775611fd3565b61177d61202f565b6000846000015182600060048110151561179357fe5b60200201818152505084602001518260016004811015156117b057fe5b60200201818152505083600001518260026004811015156117cd57fe5b60200201818152505083602001518260036004811015156117ea57fe5b60200201818152505060608360c084600060066107d05a03f19050806000811461181357611815565bfe5b5080151561182257600080fd5b505092915050565b611832611fd3565b60007f30644e72e131a029b85045b68181585d97816a916871ca8d3c208c16d87cfd4790506000836000015114801561186f575060008360200151145b1561189257604080519081016040528060008152602001600081525091506118bf565b6040805190810160405280846000015181526020018285602001518115156118b657fe5b06830381525091505b50919050565b6118cd612057565b604080519081016040528060408051908101604052807f198e9393920d483a7260bfb731fb5d25f1aa493335a9e71297e485b7aef312c281526020017f1800deef121f1e76426a00665e5c4479674322d4f75edadd46debd5cd992f6ed815250815260200160408051908101604052807f090689d0585ff075ec9e99ad690c3395bc4b313370b38ef355acdadcd122975b81526020017f12c85ea5db8c6deb4aab71808dcb408fe3d1e7690c43d37b4ce6cc0166fa7daa815250815250905090565b600061199961207e565b6119a1612092565b60026040518059106119b05750595b9080825280602002602001820160405280156119e657816020015b6119d3611fed565b8152602001906001900390816119cb5790505b50915060026040518059106119f85750595b908082528060200260200182016040528015611a2e57816020015b611a1b6120a6565b815260200190600190039081611a135790505b50905086826000815181101515611a4157fe5b9060200190602002018190525084826001815181101515611a5e57fe5b9060200190602002018190525085816000815181101515611a7b57fe5b9060200190602002018190525083816001815181101515611a9857fe5b90602001906020020181905250611aaf8282611c23565b92505050949350505050565b6000611ac561207e565b611acd612092565b6003604051805910611adc5750595b908082528060200260200182016040528015611b1257816020015b611aff611fed565b815260200190600190039081611af75790505b5091506003604051805910611b245750595b908082528060200260200182016040528015611b5a57816020015b611b476120a6565b815260200190600190039081611b3f5790505b50905088826000815181101515611b6d57fe5b9060200190602002018190525086826001815181101515611b8a57fe5b9060200190602002018190525084826002815181101515611ba757fe5b9060200190602002018190525087816000815181101515611bc457fe5b9060200190602002018190525085816001815181101515611be157fe5b9060200190602002018190525083816002815181101515611bfe57fe5b90602001906020020181905250611c158282611c23565b925050509695505050505050565b6000806000611c30611f49565b6000611c3a6120cd565b600087518951141515611c4c57600080fd5b8851955060068602945084604051805910611c645750595b90808252806020026020018201604052509350600092505b85831015611e51578883815181101515611c9257fe5b90602001906020020151600001518460006006860201815181101515611cb457fe5b90602001906020020181815250508883815181101515611cd057fe5b90602001906020020151602001518460016006860201815181101515611cf257fe5b90602001906020020181815250508783815181101515611d0e57fe5b90602001906020020151600001516000600281101515611d2a57fe5b60200201518460026006860201815181101515611d4357fe5b90602001906020020181815250508783815181101515611d5f57fe5b90602001906020020151600001516001600281101515611d7b57fe5b60200201518460036006860201815181101515611d9457fe5b90602001906020020181815250508783815181101515611db057fe5b90602001906020020151602001516000600281101515611dcc57fe5b60200201518460046006860201815181101515611de557fe5b90602001906020020181815250508783815181101515611e0157fe5b90602001906020020151602001516001600281101515611e1d57fe5b60200201518460056006860201815181101515611e3657fe5b90602001906020020181815250508280600101935050611c7c565b6020826020870260208701600060086107d05a03f190508060008114611e7657611e78565bfe5b50801515611e8557600080fd5b6000826000600181101515611e9657fe5b60200201511415965050505050505092915050565b602060405190810160405280600081525090565b602060405190810160405280600081525090565b61024060405190810160405280611ee8611fed565b8152602001611ef5611fed565b8152602001611f026120a6565b8152602001611f0f611fed565b8152602001611f1c611fed565b8152602001611f29611fed565b8152602001611f36611fed565b8152602001611f43611fed565b81525090565b602060405190810160405280600081525090565b61032060405190810160405280611f726120a6565b8152602001611f7f611fed565b8152602001611f8c6120a6565b8152602001611f996120a6565b8152602001611fa6611fed565b8152602001611fb36120a6565b8152602001611fc06120a6565b8152602001611fcd6120f5565b81525090565b604080519081016040528060008152602001600081525090565b604080519081016040528060008152602001600081525090565b6060604051908101604052806003905b60008152602001906001900390816120175790505090565b6080604051908101604052806004905b600081526020019060019003908161203f5790505090565b60806040519081016040528061206b612109565b8152602001612078612109565b81525090565b602060405190810160405280600081525090565b602060405190810160405280600081525090565b6080604051908101604052806120ba612109565b81526020016120c7612109565b81525090565b6020604051908101604052806001905b60008152602001906001900390816120dd5790505090565b602060405190810160405280600081525090565b60408051908101604052806002905b600081526020019060019003908161211857905050905600a165627a7a72305820dd44b0d78d1a860f96b7ef0fa32d3b2d1228977452735c6f6e4f2e281714a0ec0029",
  "source": "pragma solidity ^0.4.14;\r\nimport './verifier.sol';\r\ncontract SumsToFifteen is Verifier {\r\n    bool public success = false;\r\n    event Trace0(string);\r\n    function verifyFifteen(\r\n        uint[2] a,\r\n        uint[2] a_p,\r\n        uint[2][2] b,\r\n        uint[2] b_p,\r\n        uint[2] c,\r\n        uint[2] c_p,\r\n        uint[2] h,\r\n        uint[2] k,\r\n        uint[2] input) public {\r\n        emit Trace0(\">>>-1\");\r\n        // Verifiy the proof\r\n        success = verifyTx(a, a_p, b, b_p, c, c_p, h, k, input);\r\n        //if (success) {\r\n            // Proof verified\r\n        //} else {\r\n            // Sorry, bad proof!\r\n        //}\r\n    }\r\n\r\n    function get() constant returns (bool retVal) {\r\n        return success;\r\n    }\r\n}",
  "sourcePath": "/home/lovesh/dev/ethereum/playground/learning-solidity/sum15/contracts/SumsToFifteen.sol",
  "compiler": {
    "name": "solc",
    "version": "0.4.21+commit.dfe3193c.Emscripten.clang"
  },
  "schemaVersion": "2.0.0",
  "updatedAt": "2018-04-17T02:27:57.117Z"
}