{
  "contractName": "SumsToFifteen",
  "abi": [
    {
      "constant": true,
      "inputs": [],
      "name": "success",
      "outputs": [
        {
          "name": "",
          "type": "bool"
        }
      ],
      "payable": false,
      "stateMutability": "view",
      "type": "function"
    },
    {
      "constant": false,
      "inputs": [
        {
          "name": "a",
          "type": "uint256[2]"
        },
        {
          "name": "a_p",
          "type": "uint256[2]"
        },
        {
          "name": "b",
          "type": "uint256[2][2]"
        },
        {
          "name": "b_p",
          "type": "uint256[2]"
        },
        {
          "name": "c",
          "type": "uint256[2]"
        },
        {
          "name": "c_p",
          "type": "uint256[2]"
        },
        {
          "name": "h",
          "type": "uint256[2]"
        },
        {
          "name": "k",
          "type": "uint256[2]"
        },
        {
          "name": "input",
          "type": "uint256[2]"
        }
      ],
      "name": "verifyTx",
      "outputs": [
        {
          "name": "r",
          "type": "bool"
        }
      ],
      "payable": false,
      "stateMutability": "nonpayable",
      "type": "function"
    },
    {
      "anonymous": false,
      "inputs": [
        {
          "indexed": false,
          "name": "",
          "type": "string"
        }
      ],
      "name": "Verified",
      "type": "event"
    },
    {
      "constant": false,
      "inputs": [
        {
          "name": "a",
          "type": "uint256[2]"
        },
        {
          "name": "a_p",
          "type": "uint256[2]"
        },
        {
          "name": "b",
          "type": "uint256[2][2]"
        },
        {
          "name": "b_p",
          "type": "uint256[2]"
        },
        {
          "name": "c",
          "type": "uint256[2]"
        },
        {
          "name": "c_p",
          "type": "uint256[2]"
        },
        {
          "name": "h",
          "type": "uint256[2]"
        },
        {
          "name": "k",
          "type": "uint256[2]"
        },
        {
          "name": "input",
          "type": "uint256[2]"
        }
      ],
      "name": "verifyFifteen",
      "outputs": [],
      "payable": false,
      "stateMutability": "nonpayable",
      "type": "function"
    },
    {
      "constant": true,
      "inputs": [],
      "name": "get",
      "outputs": [
        {
          "name": "retVal",
          "type": "bool"
        }
      ],
      "payable": false,
      "stateMutability": "view",
      "type": "function"
    }
  ],
  "bytecode": "0x606060405260008060006101000a81548160ff021916908315150217905550341561002957600080fd5b611bc5806100386000396000f300606060405260043610610062576000357c0100000000000000000000000000000000000000000000000000000000900463ffffffff1680630b93381b146100675780634a06460b146100945780636d4ce63c14610272578063fe01ff621461029f575b600080fd5b341561007257600080fd5b61007a610495565b604051808215151515815260200191505060405180910390f35b341561009f57600080fd5b610270600480806040019060028060200260405190810160405280929190826002602002808284378201915050505050919080604001906002806020026040519081016040528092919082600260200280828437820191505050505091908060800190600280602002604051908101604052809291906000905b8282101561015b578382604002016002806020026040519081016040528092919082600260200280828437820191505050505081526020019060010190610119565b50505050919080604001906002806020026040519081016040528092919082600260200280828437820191505050505091908060400190600280602002604051908101604052809291908260026020028082843782019150505050509190806040019060028060200260405190810160405280929190826002602002808284378201915050505050919080604001906002806020026040519081016040528092919082600260200280828437820191505050505091908060400190600280602002604051908101604052809291908260026020028082843782019150505050509190806040019060028060200260405190810160405280929190826002602002808284378201915050505050919050506104a7565b005b341561027d57600080fd5b6102856104db565b604051808215151515815260200191505060405180910390f35b34156102aa57600080fd5b61047b600480806040019060028060200260405190810160405280929190826002602002808284378201915050505050919080604001906002806020026040519081016040528092919082600260200280828437820191505050505091908060800190600280602002604051908101604052809291906000905b82821015610366578382604002016002806020026040519081016040528092919082600260200280828437820191505050505081526020019060010190610324565b50505050919080604001906002806020026040519081016040528092919082600260200280828437820191505050505091908060400190600280602002604051908101604052809291908260026020028082843782019150505050509190806040019060028060200260405190810160405280929190826002602002808284378201915050505050919080604001906002806020026040519081016040528092919082600260200280828437820191505050505091908060400190600280602002604051908101604052809291908260026020028082843782019150505050509190806040019060028060200260405190810160405280929190826002602002808284378201915050505050919050506104f1565b604051808215151515815260200191505060405180910390f35b6000809054906101000a900460ff1681565b6104b88989898989898989896104f1565b6000806101000a81548160ff021916908315150217905550505050505050505050565b60008060009054906101000a900460ff16905090565b60006104fb61193c565b6105036119b2565b600060408051908101604052808e600060028110151561051f57fe5b602002015181526020018e600160028110151561053857fe5b6020020151815250836000018190525060408051908101604052808d600060028110151561056257fe5b602002015181526020018d600160028110151561057b57fe5b60200201518152508360200181905250604080519081016040528060408051908101604052808e60006002811015156105b057fe5b602002015160006002811015156105c357fe5b602002015181526020018e60006002811015156105dc57fe5b602002015160016002811015156105ef57fe5b6020020151815250815260200160408051908101604052808e600160028110151561061657fe5b6020020151600060028110151561062957fe5b602002015181526020018e600160028110151561064257fe5b6020020151600160028110151561065557fe5b6020020151815250815250836040018190525060408051908101604052808b600060028110151561068257fe5b602002015181526020018b600160028110151561069b57fe5b6020020151815250836060018190525060408051908101604052808a60006002811015156106c557fe5b602002015181526020018a60016002811015156106de57fe5b60200201518152508360800181905250604080519081016040528089600060028110151561070857fe5b6020020151815260200189600160028110151561072157fe5b60200201518152508360a00181905250604080519081016040528088600060028110151561074b57fe5b6020020151815260200188600160028110151561076457fe5b60200201518152508360e00181905250604080519081016040528087600060028110151561078e57fe5b602002015181526020018760016002811015156107a757fe5b60200201518152508360c0018190525060026040518059106107c65750595b90808252806020026020018201604052509150600090505b60028110156108235784816002811015156107f557fe5b6020020151828281518110151561080857fe5b906020019060200201818152505080806001019150506107de565b600061082f83856108e1565b14156108cc577f3f3cfdb26fb5f9f1786ab4f1a1f9cd4c0b5e726cbdfc26e495261731aad44e396040518080602001828103825260228152602001807f5472616e73616374696f6e207375636365737366756c6c79207665726966696581526020017f642e00000000000000000000000000000000000000000000000000000000000081525060400191505060405180910390a1600193506108d1565b600093505b5050509998505050505050505050565b60006108eb6119c6565b6108f3611a3c565b60006108fd610b18565b92508260e0015151600187510114151561091657600080fd5b60408051908101604052806000815260200160008152509150600090505b855181101561099457610985826109808560e001516001850181518110151561095957fe5b90602001906020020151898581518110151561097157fe5b90602001906020020151611162565b6111fe565b91508080600101915050610934565b6109ba828460e0015160008151811015156109ab57fe5b906020019060200201516111fe565b91506109e3856000015184600001516109d688602001516112bb565b6109de611356565b611420565b15156109f25760019350610b0f565b610a1983602001518660400151610a0c88606001516112bb565b610a14611356565b611420565b1515610a285760029350610b0f565b610a4f85608001518460400151610a428860a001516112bb565b610a4a611356565b611420565b1515610a5e5760039350610b0f565b610aaa8560c001518460600151610a8e610a8986610a848b600001518c608001516111fe565b6111fe565b6112bb565b8660a00151610aa088608001516112bb565b8a6040015161154c565b1515610ab95760049350610b0f565b610afb610aca8387600001516111fe565b8660400151610adc8860e001516112bb565b8660c00151610aee8a608001516112bb565b610af6611356565b61154c565b1515610b0a5760059350610b0f565b600093505b50505092915050565b610b206119c6565b604080519081016040528060408051908101604052807f2f66e7ff688469322c2254b8bbc0e0fdbf7d1724fac53cdba8c9969a16d9d9d981526020017f1a62450c530315eeadab091a64aa395eaf393a1dc10cdfb83537b902c971c707815250815260200160408051908101604052807f1b6cf2c7469f81b217f33be0a6cd9abcabd229e9dcabcdcbbd6f7460198ff84581526020017f01dd070f36af8b77967bab6e772b4d1cf23cfa1f94bbd768b9587131f65def8d815250815250816000018190525060408051908101604052807f0efc4761f3e44ef7edb536e906511c1d25236a0fdd7ceecce0acda3fd15edb7b81526020017f26b985370f3bb9002699e1957104d30ffe2f31e05cdfd66630e4a1d73c3be6868152508160200181905250604080519081016040528060408051908101604052807f19e9c6a4a0e7ff88bcbc91e2c7c15fa75b9ddba23fbacab0aa97bec1fb70d95381526020017f1df3c2162a1662bceacbf359f3a4a202924c6cdc6bd716ad3b67640066c0dc10815250815260200160408051908101604052807f0d433f92acbc2e5cab812e5d9a5d8777fbe893c8e7706b0c0158d73d952d422281526020017f0c3849213d40741ebfe767f02bcd7da911670ad011ed4ddb3099d919b345dc6b8152508152508160400181905250604080519081016040528060408051908101604052807f1d807519887eb1a0677889edf1fa8d469c28cab218217b257730b97f4bf0175f81526020017f24d154e99397210bd547665fb932c4b100ff432e36861e64f5e0ba0928b34cf3815250815260200160408051908101604052807f1ee5610f378d97c83295de0aeb385d56a6858fa972d46d7c72c6d0ef5e9c2aa081526020017f19e96768cd1ba3f86e9df221032e7634e9a635d42f8e223906063d1338d6cbf9815250815250816060018190525060408051908101604052807f0c97ba7bacc77e3da24e42b26c6b744f6e4fd6dfac5f4b47a51822da3261ac8381526020017f204f7bfb6c99f43e69583ef7546160ca291fc18e248686c9c14fe54410becfc78152508160800181905250604080519081016040528060408051908101604052807f2a2728c19b73c4a74a920091f4476c59c24a226b3e2cb558fee3b611495262a581526020017f0cd3360753368467914a7ef9469a097254ad888533adaff5ba7b8b5a15162ae0815250815260200160408051908101604052807ee6a2db53c0f7d8299ca24dcdf9c6ea7add0959ecb961dffbcb5c6c5a7f875f81526020017f19704420c5236c1a25fa69372dd6414c54f50cd5a571aa3b4d3803a44baae6288152508152508160a00181905250604080519081016040528060408051908101604052807f0104de5eca71d065754305f2b9a4514fff58a2f2ce41c2be20c7da645743290381526020017f2eb4478a028ee5cabf9985d49875e1cb6ba7bf83dec01ebe3d3cd5f81e921692815250815260200160408051908101604052807f178d8c34ecbef20c5eb490067ab177341443302f46f9f793d7991f0b98df659381526020017f0d82b1a8d5797463df9acd3c297f3bc17e653ee932ab7dc5a11907caea74a4498152508152508160c001819052506003604051805910610fc15750595b908082528060200260200182016040528015610ff757816020015b610fe4611a56565b815260200190600190039081610fdc5790505b508160e0018190525060408051908101604052807f0baba5f191ca0f6c31bcc227627a53b0df8c27847c9143b22f4d010e092ec45381526020017f17da81fe6bb2de228f6f8d2f55f6ef0ffbf846d6354051924aaca1f86daf1b398152508160e00151600081518110151561106857fe5b9060200190602002018190525060408051908101604052807f108e8503681a49c3f1cbbc992c4eea806c4aaefb6fb9d4ad42d137c78634bdd681526020017f098265dbcdbcd898a020751a92488e49e5f6c6269fa94b588e533225c7bef6668152508160e0015160018151811015156110dd57fe5b9060200190602002018190525060408051908101604052807f25feb1b66e389461bbef0b975bed920a275ba4000300a5f246ee919a2bfaeade81526020017f1c8526385efd023fc71401e77dc3018a8448cf07467a7fb3883d3e41bfeb4bc58152508160e00151600281518110151561115257fe5b9060200190602002018190525090565b61116a611a3c565b611172611a70565b6000846000015182600060038110151561118857fe5b60200201818152505084602001518260016003811015156111a557fe5b602002018181525050838260026003811015156111be57fe5b602002018181525050606083608084600060076107d05a03f1905080600081146111e7576111e9565bfe5b508015156111f657600080fd5b505092915050565b611206611a3c565b61120e611a98565b6000846000015182600060048110151561122457fe5b602002018181525050846020015182600160048110151561124157fe5b602002018181525050836000015182600260048110151561125e57fe5b602002018181525050836020015182600360048110151561127b57fe5b60200201818152505060608360c084600060066107d05a03f1905080600081146112a4576112a6565bfe5b508015156112b357600080fd5b505092915050565b6112c3611a3c565b60007f30644e72e131a029b85045b68181585d97816a916871ca8d3c208c16d87cfd47905060008360000151148015611300575060008360200151145b156113235760408051908101604052806000815260200160008152509150611350565b60408051908101604052808460000151815260200182856020015181151561134757fe5b06830381525091505b50919050565b61135e611ac0565b604080519081016040528060408051908101604052807f198e9393920d483a7260bfb731fb5d25f1aa493335a9e71297e485b7aef312c281526020017f1800deef121f1e76426a00665e5c4479674322d4f75edadd46debd5cd992f6ed815250815260200160408051908101604052807f090689d0585ff075ec9e99ad690c3395bc4b313370b38ef355acdadcd122975b81526020017f12c85ea5db8c6deb4aab71808dcb408fe3d1e7690c43d37b4ce6cc0166fa7daa815250815250905090565b600061142a611ae7565b611432611afb565b60026040518059106114415750595b90808252806020026020018201604052801561147757816020015b611464611a56565b81526020019060019003908161145c5790505b50915060026040518059106114895750595b9080825280602002602001820160405280156114bf57816020015b6114ac611b0f565b8152602001906001900390816114a45790505b509050868260008151811015156114d257fe5b90602001906020020181905250848260018151811015156114ef57fe5b906020019060200201819052508581600081518110151561150c57fe5b906020019060200201819052508381600181518110151561152957fe5b9060200190602002018190525061154082826116b4565b92505050949350505050565b6000611556611ae7565b61155e611afb565b600360405180591061156d5750595b9080825280602002602001820160405280156115a357816020015b611590611a56565b8152602001906001900390816115885790505b50915060036040518059106115b55750595b9080825280602002602001820160405280156115eb57816020015b6115d8611b0f565b8152602001906001900390816115d05790505b509050888260008151811015156115fe57fe5b906020019060200201819052508682600181518110151561161b57fe5b906020019060200201819052508482600281518110151561163857fe5b906020019060200201819052508781600081518110151561165557fe5b906020019060200201819052508581600181518110151561167257fe5b906020019060200201819052508381600281518110151561168f57fe5b906020019060200201819052506116a682826116b4565b925050509695505050505050565b60008060006116c16119b2565b60006116cb611b36565b6000875189511415156116dd57600080fd5b88519550600686029450846040518059106116f55750595b90808252806020026020018201604052509350600092505b858310156118e257888381518110151561172357fe5b9060200190602002015160000151846000600686020181518110151561174557fe5b9060200190602002018181525050888381518110151561176157fe5b9060200190602002015160200151846001600686020181518110151561178357fe5b9060200190602002018181525050878381518110151561179f57fe5b906020019060200201516000015160006002811015156117bb57fe5b602002015184600260068602018151811015156117d457fe5b906020019060200201818152505087838151811015156117f057fe5b9060200190602002015160000151600160028110151561180c57fe5b6020020151846003600686020181518110151561182557fe5b9060200190602002018181525050878381518110151561184157fe5b9060200190602002015160200151600060028110151561185d57fe5b6020020151846004600686020181518110151561187657fe5b9060200190602002018181525050878381518110151561189257fe5b906020019060200201516020015160016002811015156118ae57fe5b602002015184600560068602018151811015156118c757fe5b9060200190602002018181525050828060010193505061170d565b6020826020870260208701600060086107d05a03f19050806000811461190757611909565bfe5b5080151561191657600080fd5b600082600060018110151561192757fe5b60200201511415965050505050505092915050565b61024060405190810160405280611951611a56565b815260200161195e611a56565b815260200161196b611b0f565b8152602001611978611a56565b8152602001611985611a56565b8152602001611992611a56565b815260200161199f611a56565b81526020016119ac611a56565b81525090565b602060405190810160405280600081525090565b610320604051908101604052806119db611b0f565b81526020016119e8611a56565b81526020016119f5611b0f565b8152602001611a02611b0f565b8152602001611a0f611a56565b8152602001611a1c611b0f565b8152602001611a29611b0f565b8152602001611a36611b5e565b81525090565b604080519081016040528060008152602001600081525090565b604080519081016040528060008152602001600081525090565b6060604051908101604052806003905b6000815260200190600190039081611a805790505090565b6080604051908101604052806004905b6000815260200190600190039081611aa85790505090565b608060405190810160405280611ad4611b72565b8152602001611ae1611b72565b81525090565b602060405190810160405280600081525090565b602060405190810160405280600081525090565b608060405190810160405280611b23611b72565b8152602001611b30611b72565b81525090565b6020604051908101604052806001905b6000815260200190600190039081611b465790505090565b602060405190810160405280600081525090565b60408051908101604052806002905b6000815260200190600190039081611b8157905050905600a165627a7a723058202ad180fc8bcee67a41cdd0c67a69344c5b7e41fa724ea74644dc2ae6ec41bbec0029",
  "source": "pragma solidity ^0.4.14;\r\nimport './verifier.sol';\r\ncontract SumsToFifteen is Verifier {\r\n    bool public success = false;\r\n    function verifyFifteen(\r\n        uint[2] a,\r\n        uint[2] a_p,\r\n        uint[2][2] b,\r\n        uint[2] b_p,\r\n        uint[2] c,\r\n        uint[2] c_p,\r\n        uint[2] h,\r\n        uint[2] k,\r\n        uint[2] input) public {\r\n        // Verifiy the proof\r\n        success = verifyTx(a, a_p, b, b_p, c, c_p, h, k, input);\r\n        //if (success) {\r\n            // Proof verified\r\n        //} else {\r\n            // Sorry, bad proof!\r\n        //}\r\n    }\r\n\r\n    function get() constant returns (bool retVal) {\r\n        return success;\r\n    }\r\n}",
  "sourcePath": "/home/lovesh/dev/ethereum/playground/learning-solidity/sum15/contracts/SumsToFifteen.sol",
  "compiler": {
    "name": "solc",
    "version": "0.4.21+commit.dfe3193c.Emscripten.clang"
  },
  "schemaVersion": "2.0.0",
  "updatedAt": "2018-04-16T19:51:12.685Z"
}