{
  "contractName": "Verifier",
  "abi": [
    {
      "anonymous": false,
      "inputs": [
        {
          "indexed": false,
          "name": "",
          "type": "string"
        }
      ],
      "name": "Verified",
      "type": "event"
    },
    {
      "constant": false,
      "inputs": [
        {
          "name": "a",
          "type": "uint256[2]"
        },
        {
          "name": "a_p",
          "type": "uint256[2]"
        },
        {
          "name": "b",
          "type": "uint256[2][2]"
        },
        {
          "name": "b_p",
          "type": "uint256[2]"
        },
        {
          "name": "c",
          "type": "uint256[2]"
        },
        {
          "name": "c_p",
          "type": "uint256[2]"
        },
        {
          "name": "h",
          "type": "uint256[2]"
        },
        {
          "name": "k",
          "type": "uint256[2]"
        },
        {
          "name": "input",
          "type": "uint256[2]"
        }
      ],
      "name": "verifyTx",
      "outputs": [
        {
          "name": "r",
          "type": "bool"
        }
      ],
      "payable": false,
      "stateMutability": "nonpayable",
      "type": "function"
    }
  ],
  "bytecode": "0x6060604052341561000f57600080fd5b6119108061001e6000396000f300606060405260043610610041576000357c0100000000000000000000000000000000000000000000000000000000900463ffffffff168063fe01ff6214610046575b600080fd5b341561005157600080fd5b610222600480806040019060028060200260405190810160405280929190826002602002808284378201915050505050919080604001906002806020026040519081016040528092919082600260200280828437820191505050505091908060800190600280602002604051908101604052809291906000905b8282101561010d5783826040020160028060200260405190810160405280929190826002602002808284378201915050505050815260200190600101906100cb565b505050509190806040019060028060200260405190810160405280929190826002602002808284378201915050505050919080604001906002806020026040519081016040528092919082600260200280828437820191505050505091908060400190600280602002604051908101604052809291908260026020028082843782019150505050509190806040019060028060200260405190810160405280929190826002602002808284378201915050505050919080604001906002806020026040519081016040528092919082600260200280828437820191505050505091908060400190600280602002604051908101604052809291908260026020028082843782019150505050509190505061023c565b604051808215151515815260200191505060405180910390f35b6000610246611687565b61024e6116fd565b600060408051908101604052808e600060028110151561026a57fe5b602002015181526020018e600160028110151561028357fe5b6020020151815250836000018190525060408051908101604052808d60006002811015156102ad57fe5b602002015181526020018d60016002811015156102c657fe5b60200201518152508360200181905250604080519081016040528060408051908101604052808e60006002811015156102fb57fe5b6020020151600060028110151561030e57fe5b602002015181526020018e600060028110151561032757fe5b6020020151600160028110151561033a57fe5b6020020151815250815260200160408051908101604052808e600160028110151561036157fe5b6020020151600060028110151561037457fe5b602002015181526020018e600160028110151561038d57fe5b602002015160016002811015156103a057fe5b6020020151815250815250836040018190525060408051908101604052808b60006002811015156103cd57fe5b602002015181526020018b60016002811015156103e657fe5b6020020151815250836060018190525060408051908101604052808a600060028110151561041057fe5b602002015181526020018a600160028110151561042957fe5b60200201518152508360800181905250604080519081016040528089600060028110151561045357fe5b6020020151815260200189600160028110151561046c57fe5b60200201518152508360a00181905250604080519081016040528088600060028110151561049657fe5b602002015181526020018860016002811015156104af57fe5b60200201518152508360e0018190525060408051908101604052808760006002811015156104d957fe5b602002015181526020018760016002811015156104f257fe5b60200201518152508360c0018190525060026040518059106105115750595b90808252806020026020018201604052509150600090505b600281101561056e57848160028110151561054057fe5b6020020151828281518110151561055357fe5b90602001906020020181815250508080600101915050610529565b600061057a838561062c565b1415610617577f3f3cfdb26fb5f9f1786ab4f1a1f9cd4c0b5e726cbdfc26e495261731aad44e396040518080602001828103825260228152602001807f5472616e73616374696f6e207375636365737366756c6c79207665726966696581526020017f642e00000000000000000000000000000000000000000000000000000000000081525060400191505060405180910390a16001935061061c565b600093505b5050509998505050505050505050565b6000610636611711565b61063e611787565b6000610648610863565b92508260e0015151600187510114151561066157600080fd5b60408051908101604052806000815260200160008152509150600090505b85518110156106df576106d0826106cb8560e00151600185018151811015156106a457fe5b9060200190602002015189858151811015156106bc57fe5b90602001906020020151610ead565b610f49565b9150808060010191505061067f565b610705828460e0015160008151811015156106f657fe5b90602001906020020151610f49565b915061072e856000015184600001516107218860200151611006565b6107296110a1565b61116b565b151561073d576001935061085a565b610764836020015186604001516107578860600151611006565b61075f6110a1565b61116b565b1515610773576002935061085a565b61079a8560800151846040015161078d8860a00151611006565b6107956110a1565b61116b565b15156107a9576003935061085a565b6107f58560c0015184606001516107d96107d4866107cf8b600001518c60800151610f49565b610f49565b611006565b8660a001516107eb8860800151611006565b8a60400151611297565b1515610804576004935061085a565b610846610815838760000151610f49565b86604001516108278860e00151611006565b8660c001516108398a60800151611006565b6108416110a1565b611297565b1515610855576005935061085a565b600093505b50505092915050565b61086b611711565b604080519081016040528060408051908101604052807f2f66e7ff688469322c2254b8bbc0e0fdbf7d1724fac53cdba8c9969a16d9d9d981526020017f1a62450c530315eeadab091a64aa395eaf393a1dc10cdfb83537b902c971c707815250815260200160408051908101604052807f1b6cf2c7469f81b217f33be0a6cd9abcabd229e9dcabcdcbbd6f7460198ff84581526020017f01dd070f36af8b77967bab6e772b4d1cf23cfa1f94bbd768b9587131f65def8d815250815250816000018190525060408051908101604052807f0efc4761f3e44ef7edb536e906511c1d25236a0fdd7ceecce0acda3fd15edb7b81526020017f26b985370f3bb9002699e1957104d30ffe2f31e05cdfd66630e4a1d73c3be6868152508160200181905250604080519081016040528060408051908101604052807f19e9c6a4a0e7ff88bcbc91e2c7c15fa75b9ddba23fbacab0aa97bec1fb70d95381526020017f1df3c2162a1662bceacbf359f3a4a202924c6cdc6bd716ad3b67640066c0dc10815250815260200160408051908101604052807f0d433f92acbc2e5cab812e5d9a5d8777fbe893c8e7706b0c0158d73d952d422281526020017f0c3849213d40741ebfe767f02bcd7da911670ad011ed4ddb3099d919b345dc6b8152508152508160400181905250604080519081016040528060408051908101604052807f1d807519887eb1a0677889edf1fa8d469c28cab218217b257730b97f4bf0175f81526020017f24d154e99397210bd547665fb932c4b100ff432e36861e64f5e0ba0928b34cf3815250815260200160408051908101604052807f1ee5610f378d97c83295de0aeb385d56a6858fa972d46d7c72c6d0ef5e9c2aa081526020017f19e96768cd1ba3f86e9df221032e7634e9a635d42f8e223906063d1338d6cbf9815250815250816060018190525060408051908101604052807f0c97ba7bacc77e3da24e42b26c6b744f6e4fd6dfac5f4b47a51822da3261ac8381526020017f204f7bfb6c99f43e69583ef7546160ca291fc18e248686c9c14fe54410becfc78152508160800181905250604080519081016040528060408051908101604052807f2a2728c19b73c4a74a920091f4476c59c24a226b3e2cb558fee3b611495262a581526020017f0cd3360753368467914a7ef9469a097254ad888533adaff5ba7b8b5a15162ae0815250815260200160408051908101604052807ee6a2db53c0f7d8299ca24dcdf9c6ea7add0959ecb961dffbcb5c6c5a7f875f81526020017f19704420c5236c1a25fa69372dd6414c54f50cd5a571aa3b4d3803a44baae6288152508152508160a00181905250604080519081016040528060408051908101604052807f0104de5eca71d065754305f2b9a4514fff58a2f2ce41c2be20c7da645743290381526020017f2eb4478a028ee5cabf9985d49875e1cb6ba7bf83dec01ebe3d3cd5f81e921692815250815260200160408051908101604052807f178d8c34ecbef20c5eb490067ab177341443302f46f9f793d7991f0b98df659381526020017f0d82b1a8d5797463df9acd3c297f3bc17e653ee932ab7dc5a11907caea74a4498152508152508160c001819052506003604051805910610d0c5750595b908082528060200260200182016040528015610d4257816020015b610d2f6117a1565b815260200190600190039081610d275790505b508160e0018190525060408051908101604052807f0baba5f191ca0f6c31bcc227627a53b0df8c27847c9143b22f4d010e092ec45381526020017f17da81fe6bb2de228f6f8d2f55f6ef0ffbf846d6354051924aaca1f86daf1b398152508160e001516000815181101515610db357fe5b9060200190602002018190525060408051908101604052807f108e8503681a49c3f1cbbc992c4eea806c4aaefb6fb9d4ad42d137c78634bdd681526020017f098265dbcdbcd898a020751a92488e49e5f6c6269fa94b588e533225c7bef6668152508160e001516001815181101515610e2857fe5b9060200190602002018190525060408051908101604052807f25feb1b66e389461bbef0b975bed920a275ba4000300a5f246ee919a2bfaeade81526020017f1c8526385efd023fc71401e77dc3018a8448cf07467a7fb3883d3e41bfeb4bc58152508160e001516002815181101515610e9d57fe5b9060200190602002018190525090565b610eb5611787565b610ebd6117bb565b60008460000151826000600381101515610ed357fe5b6020020181815250508460200151826001600381101515610ef057fe5b60200201818152505083826002600381101515610f0957fe5b602002018181525050606083608084600060076107d05a03f190508060008114610f3257610f34565bfe5b50801515610f4157600080fd5b505092915050565b610f51611787565b610f596117e3565b60008460000151826000600481101515610f6f57fe5b6020020181815250508460200151826001600481101515610f8c57fe5b6020020181815250508360000151826002600481101515610fa957fe5b6020020181815250508360200151826003600481101515610fc657fe5b60200201818152505060608360c084600060066107d05a03f190508060008114610fef57610ff1565bfe5b50801515610ffe57600080fd5b505092915050565b61100e611787565b60007f30644e72e131a029b85045b68181585d97816a916871ca8d3c208c16d87cfd4790506000836000015114801561104b575060008360200151145b1561106e576040805190810160405280600081526020016000815250915061109b565b60408051908101604052808460000151815260200182856020015181151561109257fe5b06830381525091505b50919050565b6110a961180b565b604080519081016040528060408051908101604052807f198e9393920d483a7260bfb731fb5d25f1aa493335a9e71297e485b7aef312c281526020017f1800deef121f1e76426a00665e5c4479674322d4f75edadd46debd5cd992f6ed815250815260200160408051908101604052807f090689d0585ff075ec9e99ad690c3395bc4b313370b38ef355acdadcd122975b81526020017f12c85ea5db8c6deb4aab71808dcb408fe3d1e7690c43d37b4ce6cc0166fa7daa815250815250905090565b6000611175611832565b61117d611846565b600260405180591061118c5750595b9080825280602002602001820160405280156111c257816020015b6111af6117a1565b8152602001906001900390816111a75790505b50915060026040518059106111d45750595b90808252806020026020018201604052801561120a57816020015b6111f761185a565b8152602001906001900390816111ef5790505b5090508682600081518110151561121d57fe5b906020019060200201819052508482600181518110151561123a57fe5b906020019060200201819052508581600081518110151561125757fe5b906020019060200201819052508381600181518110151561127457fe5b9060200190602002018190525061128b82826113ff565b92505050949350505050565b60006112a1611832565b6112a9611846565b60036040518059106112b85750595b9080825280602002602001820160405280156112ee57816020015b6112db6117a1565b8152602001906001900390816112d35790505b50915060036040518059106113005750595b90808252806020026020018201604052801561133657816020015b61132361185a565b81526020019060019003908161131b5790505b5090508882600081518110151561134957fe5b906020019060200201819052508682600181518110151561136657fe5b906020019060200201819052508482600281518110151561138357fe5b90602001906020020181905250878160008151811015156113a057fe5b90602001906020020181905250858160018151811015156113bd57fe5b90602001906020020181905250838160028151811015156113da57fe5b906020019060200201819052506113f182826113ff565b925050509695505050505050565b600080600061140c6116fd565b6000611416611881565b60008751895114151561142857600080fd5b88519550600686029450846040518059106114405750595b90808252806020026020018201604052509350600092505b8583101561162d57888381518110151561146e57fe5b9060200190602002015160000151846000600686020181518110151561149057fe5b906020019060200201818152505088838151811015156114ac57fe5b906020019060200201516020015184600160068602018151811015156114ce57fe5b906020019060200201818152505087838151811015156114ea57fe5b9060200190602002015160000151600060028110151561150657fe5b6020020151846002600686020181518110151561151f57fe5b9060200190602002018181525050878381518110151561153b57fe5b9060200190602002015160000151600160028110151561155757fe5b6020020151846003600686020181518110151561157057fe5b9060200190602002018181525050878381518110151561158c57fe5b906020019060200201516020015160006002811015156115a857fe5b602002015184600460068602018151811015156115c157fe5b906020019060200201818152505087838151811015156115dd57fe5b906020019060200201516020015160016002811015156115f957fe5b6020020151846005600686020181518110151561161257fe5b90602001906020020181815250508280600101935050611458565b6020826020870260208701600060086107d05a03f19050806000811461165257611654565bfe5b5080151561166157600080fd5b600082600060018110151561167257fe5b60200201511415965050505050505092915050565b6102406040519081016040528061169c6117a1565b81526020016116a96117a1565b81526020016116b661185a565b81526020016116c36117a1565b81526020016116d06117a1565b81526020016116dd6117a1565b81526020016116ea6117a1565b81526020016116f76117a1565b81525090565b602060405190810160405280600081525090565b6103206040519081016040528061172661185a565b81526020016117336117a1565b815260200161174061185a565b815260200161174d61185a565b815260200161175a6117a1565b815260200161176761185a565b815260200161177461185a565b81526020016117816118a9565b81525090565b604080519081016040528060008152602001600081525090565b604080519081016040528060008152602001600081525090565b6060604051908101604052806003905b60008152602001906001900390816117cb5790505090565b6080604051908101604052806004905b60008152602001906001900390816117f35790505090565b60806040519081016040528061181f6118bd565b815260200161182c6118bd565b81525090565b602060405190810160405280600081525090565b602060405190810160405280600081525090565b60806040519081016040528061186e6118bd565b815260200161187b6118bd565b81525090565b6020604051908101604052806001905b60008152602001906001900390816118915790505090565b602060405190810160405280600081525090565b60408051908101604052806002905b60008152602001906001900390816118cc57905050905600a165627a7a723058204d0d2cd640b4f71ef50f0248b0ac7458eacdb05f986332db83a8500a10aca4870029",
  "source": "pragma solidity ^0.4.14;\r\nlibrary Pairing {\r\n    struct G1Point {\r\n        uint X;\r\n        uint Y;\r\n    }\r\n    // Encoding of field elements is: X[0] * z + X[1]\r\n    struct G2Point {\r\n        uint[2] X;\r\n        uint[2] Y;\r\n    }\r\n    /// @return the generator of G1\r\n    function P1() internal returns (G1Point) {\r\n        return G1Point(1, 2);\r\n    }\r\n    /// @return the generator of G2\r\n    function P2() internal returns (G2Point) {\r\n        return G2Point(\r\n            [11559732032986387107991004021392285783925812861821192530917403151452391805634,\r\n             10857046999023057135944570762232829481370756359578518086990519993285655852781],\r\n            [4082367875863433681332203403145435568316851327593401208105741076214120093531,\r\n             8495653923123431417604973247489272438418190587263600148770280649306958101930]\r\n        );\r\n    }\r\n    /// @return the negation of p, i.e. p.add(p.negate()) should be zero.\r\n    function negate(G1Point p) internal returns (G1Point) {\r\n        // The prime q in the base field F_q for G1\r\n        uint q = 21888242871839275222246405745257275088696311157297823662689037894645226208583;\r\n        if (p.X == 0 && p.Y == 0)\r\n            return G1Point(0, 0);\r\n        return G1Point(p.X, q - (p.Y % q));\r\n    }\r\n    /// @return the sum of two points of G1\r\n    function add(G1Point p1, G1Point p2) internal returns (G1Point r) {\r\n        uint[4] memory input;\r\n        input[0] = p1.X;\r\n        input[1] = p1.Y;\r\n        input[2] = p2.X;\r\n        input[3] = p2.Y;\r\n        bool success;\r\n        assembly {\r\n            success := call(sub(gas, 2000), 6, 0, input, 0xc0, r, 0x60)\r\n            // Use \"invalid\" to make gas estimation work\r\n            switch success case 0 { invalid }\r\n        }\r\n        require(success);\r\n    }\r\n    /// @return the product of a point on G1 and a scalar, i.e.\r\n    /// p == p.mul(1) and p.add(p) == p.mul(2) for all points p.\r\n    function mul(G1Point p, uint s) internal returns (G1Point r) {\r\n        uint[3] memory input;\r\n        input[0] = p.X;\r\n        input[1] = p.Y;\r\n        input[2] = s;\r\n        bool success;\r\n        assembly {\r\n            success := call(sub(gas, 2000), 7, 0, input, 0x80, r, 0x60)\r\n            // Use \"invalid\" to make gas estimation work\r\n            switch success case 0 { invalid }\r\n        }\r\n        require (success);\r\n    }\r\n    /// @return the result of computing the pairing check\r\n    /// e(p1[0], p2[0]) *  .... * e(p1[n], p2[n]) == 1\r\n    /// For example pairing([P1(), P1().negate()], [P2(), P2()]) should\r\n    /// return true.\r\n    function pairing(G1Point[] p1, G2Point[] p2) internal returns (bool) {\r\n        require(p1.length == p2.length);\r\n        uint elements = p1.length;\r\n        uint inputSize = elements * 6;\r\n        uint[] memory input = new uint[](inputSize);\r\n        for (uint i = 0; i < elements; i++)\r\n        {\r\n            input[i * 6 + 0] = p1[i].X;\r\n            input[i * 6 + 1] = p1[i].Y;\r\n            input[i * 6 + 2] = p2[i].X[0];\r\n            input[i * 6 + 3] = p2[i].X[1];\r\n            input[i * 6 + 4] = p2[i].Y[0];\r\n            input[i * 6 + 5] = p2[i].Y[1];\r\n        }\r\n        uint[1] memory out;\r\n        bool success;\r\n        assembly {\r\n            success := call(sub(gas, 2000), 8, 0, add(input, 0x20), mul(inputSize, 0x20), out, 0x20)\r\n            // Use \"invalid\" to make gas estimation work\r\n            switch success case 0 { invalid }\r\n        }\r\n        require(success);\r\n        return out[0] != 0;\r\n    }\r\n    /// Convenience method for a pairing check for two pairs.\r\n    function pairingProd2(G1Point a1, G2Point a2, G1Point b1, G2Point b2) internal returns (bool) {\r\n        G1Point[] memory p1 = new G1Point[](2);\r\n        G2Point[] memory p2 = new G2Point[](2);\r\n        p1[0] = a1;\r\n        p1[1] = b1;\r\n        p2[0] = a2;\r\n        p2[1] = b2;\r\n        return pairing(p1, p2);\r\n    }\r\n    /// Convenience method for a pairing check for three pairs.\r\n    function pairingProd3(\r\n            G1Point a1, G2Point a2,\r\n            G1Point b1, G2Point b2,\r\n            G1Point c1, G2Point c2\r\n    ) internal returns (bool) {\r\n        G1Point[] memory p1 = new G1Point[](3);\r\n        G2Point[] memory p2 = new G2Point[](3);\r\n        p1[0] = a1;\r\n        p1[1] = b1;\r\n        p1[2] = c1;\r\n        p2[0] = a2;\r\n        p2[1] = b2;\r\n        p2[2] = c2;\r\n        return pairing(p1, p2);\r\n    }\r\n    /// Convenience method for a pairing check for four pairs.\r\n    function pairingProd4(\r\n            G1Point a1, G2Point a2,\r\n            G1Point b1, G2Point b2,\r\n            G1Point c1, G2Point c2,\r\n            G1Point d1, G2Point d2\r\n    ) internal returns (bool) {\r\n        G1Point[] memory p1 = new G1Point[](4);\r\n        G2Point[] memory p2 = new G2Point[](4);\r\n        p1[0] = a1;\r\n        p1[1] = b1;\r\n        p1[2] = c1;\r\n        p1[3] = d1;\r\n        p2[0] = a2;\r\n        p2[1] = b2;\r\n        p2[2] = c2;\r\n        p2[3] = d2;\r\n        return pairing(p1, p2);\r\n    }\r\n}\r\ncontract Verifier {\r\n    using Pairing for *;\r\n    struct VerifyingKey {\r\n        Pairing.G2Point A;\r\n        Pairing.G1Point B;\r\n        Pairing.G2Point C;\r\n        Pairing.G2Point gamma;\r\n        Pairing.G1Point gammaBeta1;\r\n        Pairing.G2Point gammaBeta2;\r\n        Pairing.G2Point Z;\r\n        Pairing.G1Point[] IC;\r\n    }\r\n    struct Proof {\r\n        Pairing.G1Point A;\r\n        Pairing.G1Point A_p;\r\n        Pairing.G2Point B;\r\n        Pairing.G1Point B_p;\r\n        Pairing.G1Point C;\r\n        Pairing.G1Point C_p;\r\n        Pairing.G1Point K;\r\n        Pairing.G1Point H;\r\n    }\r\n    function verifyingKey() internal returns (VerifyingKey vk) {\r\n        vk.A = Pairing.G2Point([0x2f66e7ff688469322c2254b8bbc0e0fdbf7d1724fac53cdba8c9969a16d9d9d9, 0x1a62450c530315eeadab091a64aa395eaf393a1dc10cdfb83537b902c971c707], [0x1b6cf2c7469f81b217f33be0a6cd9abcabd229e9dcabcdcbbd6f7460198ff845, 0x1dd070f36af8b77967bab6e772b4d1cf23cfa1f94bbd768b9587131f65def8d]);\r\n        vk.B = Pairing.G1Point(0xefc4761f3e44ef7edb536e906511c1d25236a0fdd7ceecce0acda3fd15edb7b, 0x26b985370f3bb9002699e1957104d30ffe2f31e05cdfd66630e4a1d73c3be686);\r\n        vk.C = Pairing.G2Point([0x19e9c6a4a0e7ff88bcbc91e2c7c15fa75b9ddba23fbacab0aa97bec1fb70d953, 0x1df3c2162a1662bceacbf359f3a4a202924c6cdc6bd716ad3b67640066c0dc10], [0xd433f92acbc2e5cab812e5d9a5d8777fbe893c8e7706b0c0158d73d952d4222, 0xc3849213d40741ebfe767f02bcd7da911670ad011ed4ddb3099d919b345dc6b]);\r\n        vk.gamma = Pairing.G2Point([0x1d807519887eb1a0677889edf1fa8d469c28cab218217b257730b97f4bf0175f, 0x24d154e99397210bd547665fb932c4b100ff432e36861e64f5e0ba0928b34cf3], [0x1ee5610f378d97c83295de0aeb385d56a6858fa972d46d7c72c6d0ef5e9c2aa0, 0x19e96768cd1ba3f86e9df221032e7634e9a635d42f8e223906063d1338d6cbf9]);\r\n        vk.gammaBeta1 = Pairing.G1Point(0xc97ba7bacc77e3da24e42b26c6b744f6e4fd6dfac5f4b47a51822da3261ac83, 0x204f7bfb6c99f43e69583ef7546160ca291fc18e248686c9c14fe54410becfc7);\r\n        vk.gammaBeta2 = Pairing.G2Point([0x2a2728c19b73c4a74a920091f4476c59c24a226b3e2cb558fee3b611495262a5, 0xcd3360753368467914a7ef9469a097254ad888533adaff5ba7b8b5a15162ae0], [0xe6a2db53c0f7d8299ca24dcdf9c6ea7add0959ecb961dffbcb5c6c5a7f875f, 0x19704420c5236c1a25fa69372dd6414c54f50cd5a571aa3b4d3803a44baae628]);\r\n        vk.Z = Pairing.G2Point([0x104de5eca71d065754305f2b9a4514fff58a2f2ce41c2be20c7da6457432903, 0x2eb4478a028ee5cabf9985d49875e1cb6ba7bf83dec01ebe3d3cd5f81e921692], [0x178d8c34ecbef20c5eb490067ab177341443302f46f9f793d7991f0b98df6593, 0xd82b1a8d5797463df9acd3c297f3bc17e653ee932ab7dc5a11907caea74a449]);\r\n        vk.IC = new Pairing.G1Point[](3);\r\n        vk.IC[0] = Pairing.G1Point(0xbaba5f191ca0f6c31bcc227627a53b0df8c27847c9143b22f4d010e092ec453, 0x17da81fe6bb2de228f6f8d2f55f6ef0ffbf846d6354051924aaca1f86daf1b39);\r\n        vk.IC[1] = Pairing.G1Point(0x108e8503681a49c3f1cbbc992c4eea806c4aaefb6fb9d4ad42d137c78634bdd6, 0x98265dbcdbcd898a020751a92488e49e5f6c6269fa94b588e533225c7bef666);\r\n        vk.IC[2] = Pairing.G1Point(0x25feb1b66e389461bbef0b975bed920a275ba4000300a5f246ee919a2bfaeade, 0x1c8526385efd023fc71401e77dc3018a8448cf07467a7fb3883d3e41bfeb4bc5);\r\n    }\r\n    function verify(uint[] input, Proof proof) internal returns (uint) {\r\n        VerifyingKey memory vk = verifyingKey();\r\n        require(input.length + 1 == vk.IC.length);\r\n        // Compute the linear combination vk_x\r\n        Pairing.G1Point memory vk_x = Pairing.G1Point(0, 0);\r\n        for (uint i = 0; i < input.length; i++)\r\n            vk_x = Pairing.add(vk_x, Pairing.mul(vk.IC[i + 1], input[i]));\r\n        vk_x = Pairing.add(vk_x, vk.IC[0]);\r\n        if (!Pairing.pairingProd2(proof.A, vk.A, Pairing.negate(proof.A_p), Pairing.P2())) return 1;\r\n        if (!Pairing.pairingProd2(vk.B, proof.B, Pairing.negate(proof.B_p), Pairing.P2())) return 2;\r\n        if (!Pairing.pairingProd2(proof.C, vk.C, Pairing.negate(proof.C_p), Pairing.P2())) return 3;\r\n        if (!Pairing.pairingProd3(\r\n            proof.K, vk.gamma,\r\n            Pairing.negate(Pairing.add(vk_x, Pairing.add(proof.A, proof.C))), vk.gammaBeta2,\r\n            Pairing.negate(vk.gammaBeta1), proof.B\r\n        )) return 4;\r\n        if (!Pairing.pairingProd3(\r\n                Pairing.add(vk_x, proof.A), proof.B,\r\n                Pairing.negate(proof.H), vk.Z,\r\n                Pairing.negate(proof.C), Pairing.P2()\r\n        )) return 5;\r\n        return 0;\r\n    }\r\n    event Verified(string);\r\n    function verifyTx(\r\n            uint[2] a,\r\n            uint[2] a_p,\r\n            uint[2][2] b,\r\n            uint[2] b_p,\r\n            uint[2] c,\r\n            uint[2] c_p,\r\n            uint[2] h,\r\n            uint[2] k,\r\n            uint[2] input\r\n        ) returns (bool r) {\r\n        Proof memory proof;\r\n        proof.A = Pairing.G1Point(a[0], a[1]);\r\n        proof.A_p = Pairing.G1Point(a_p[0], a_p[1]);\r\n        proof.B = Pairing.G2Point([b[0][0], b[0][1]], [b[1][0], b[1][1]]);\r\n        proof.B_p = Pairing.G1Point(b_p[0], b_p[1]);\r\n        proof.C = Pairing.G1Point(c[0], c[1]);\r\n        proof.C_p = Pairing.G1Point(c_p[0], c_p[1]);\r\n        proof.H = Pairing.G1Point(h[0], h[1]);\r\n        proof.K = Pairing.G1Point(k[0], k[1]);\r\n        uint[] memory inputValues = new uint[](input.length);\r\n        for(uint i = 0; i < input.length; i++){\r\n            inputValues[i] = input[i];\r\n        }\r\n        if (verify(inputValues, proof) == 0) {\r\n            Verified(\"Transaction successfully verified.\");\r\n            return true;\r\n        } else {\r\n            return false;\r\n        }\r\n    }\r\n}\r\n",
  "sourcePath": "/home/lovesh/dev/ethereum/playground/learning-solidity/sum15/contracts/verifier.sol",
  "compiler": {
    "name": "solc",
    "version": "0.4.21+commit.dfe3193c.Emscripten.clang"
  },
  "schemaVersion": "2.0.0",
  "updatedAt": "2018-04-16T19:50:48.123Z"
}