{
  "contractName": "Verifier1",
  "abi": [
    {
      "anonymous": false,
      "inputs": [
        {
          "indexed": false,
          "name": "",
          "type": "string"
        }
      ],
      "name": "Verified",
      "type": "event"
    },
    {
      "constant": false,
      "inputs": [
        {
          "name": "a",
          "type": "uint256[2]"
        },
        {
          "name": "a_p",
          "type": "uint256[2]"
        },
        {
          "name": "b",
          "type": "uint256[2][2]"
        },
        {
          "name": "b_p",
          "type": "uint256[2]"
        },
        {
          "name": "c",
          "type": "uint256[2]"
        },
        {
          "name": "c_p",
          "type": "uint256[2]"
        },
        {
          "name": "h",
          "type": "uint256[2]"
        },
        {
          "name": "k",
          "type": "uint256[2]"
        },
        {
          "name": "input",
          "type": "uint256[2]"
        }
      ],
      "name": "verifyTx",
      "outputs": [
        {
          "name": "r",
          "type": "bool"
        }
      ],
      "payable": false,
      "stateMutability": "nonpayable",
      "type": "function"
    }
  ],
  "bytecode": "0x6060604052341561000f57600080fd5b6119118061001e6000396000f300606060405260043610610041576000357c0100000000000000000000000000000000000000000000000000000000900463ffffffff168063fe01ff6214610046575b600080fd5b341561005157600080fd5b610222600480806040019060028060200260405190810160405280929190826002602002808284378201915050505050919080604001906002806020026040519081016040528092919082600260200280828437820191505050505091908060800190600280602002604051908101604052809291906000905b8282101561010d5783826040020160028060200260405190810160405280929190826002602002808284378201915050505050815260200190600101906100cb565b505050509190806040019060028060200260405190810160405280929190826002602002808284378201915050505050919080604001906002806020026040519081016040528092919082600260200280828437820191505050505091908060400190600280602002604051908101604052809291908260026020028082843782019150505050509190806040019060028060200260405190810160405280929190826002602002808284378201915050505050919080604001906002806020026040519081016040528092919082600260200280828437820191505050505091908060400190600280602002604051908101604052809291908260026020028082843782019150505050509190505061023c565b604051808215151515815260200191505060405180910390f35b6000610246611688565b61024e6116fe565b600060408051908101604052808e600060028110151561026a57fe5b602002015181526020018e600160028110151561028357fe5b6020020151815250836000018190525060408051908101604052808d60006002811015156102ad57fe5b602002015181526020018d60016002811015156102c657fe5b60200201518152508360200181905250604080519081016040528060408051908101604052808e60006002811015156102fb57fe5b6020020151600060028110151561030e57fe5b602002015181526020018e600060028110151561032757fe5b6020020151600160028110151561033a57fe5b6020020151815250815260200160408051908101604052808e600160028110151561036157fe5b6020020151600060028110151561037457fe5b602002015181526020018e600160028110151561038d57fe5b602002015160016002811015156103a057fe5b6020020151815250815250836040018190525060408051908101604052808b60006002811015156103cd57fe5b602002015181526020018b60016002811015156103e657fe5b6020020151815250836060018190525060408051908101604052808a600060028110151561041057fe5b602002015181526020018a600160028110151561042957fe5b60200201518152508360800181905250604080519081016040528089600060028110151561045357fe5b6020020151815260200189600160028110151561046c57fe5b60200201518152508360a00181905250604080519081016040528088600060028110151561049657fe5b602002015181526020018860016002811015156104af57fe5b60200201518152508360e0018190525060408051908101604052808760006002811015156104d957fe5b602002015181526020018760016002811015156104f257fe5b60200201518152508360c0018190525060026040518059106105115750595b90808252806020026020018201604052509150600090505b600281101561056e57848160028110151561054057fe5b6020020151828281518110151561055357fe5b90602001906020020181815250508080600101915050610529565b600061057a838561062c565b1415610617577f3f3cfdb26fb5f9f1786ab4f1a1f9cd4c0b5e726cbdfc26e495261731aad44e396040518080602001828103825260228152602001807f5472616e73616374696f6e207375636365737366756c6c79207665726966696581526020017f642e00000000000000000000000000000000000000000000000000000000000081525060400191505060405180910390a16001935061061c565b600093505b5050509998505050505050505050565b6000610636611712565b61063e611788565b6000610648610863565b92508260e0015151600187510114151561066157600080fd5b60408051908101604052806000815260200160008152509150600090505b85518110156106df576106d0826106cb8560e00151600185018151811015156106a457fe5b9060200190602002015189858151811015156106bc57fe5b90602001906020020151610eae565b610f4a565b9150808060010191505061067f565b610705828460e0015160008151811015156106f657fe5b90602001906020020151610f4a565b915061072e856000015184600001516107218860200151611007565b6107296110a2565b61116c565b151561073d576001935061085a565b610764836020015186604001516107578860600151611007565b61075f6110a2565b61116c565b1515610773576002935061085a565b61079a8560800151846040015161078d8860a00151611007565b6107956110a2565b61116c565b15156107a9576003935061085a565b6107f58560c0015184606001516107d96107d4866107cf8b600001518c60800151610f4a565b610f4a565b611007565b8660a001516107eb8860800151611007565b8a60400151611298565b1515610804576004935061085a565b610846610815838760000151610f4a565b86604001516108278860e00151611007565b8660c001516108398a60800151611007565b6108416110a2565b611298565b1515610855576005935061085a565b600093505b50505092915050565b61086b611712565b604080519081016040528060408051908101604052807f2d456667c277bd56998238d5c25fb5952ccd725450c3445e2c22ccf5fe629b5481526020017f0509eac93e87ff385eb900158d8d7b43c0917d7d172b5bf68a4dd237195a91d5815250815260200160408051908101604052807f113f5988892345e3c6137736d875988576ff6dc0f2e8134ee297112fb579ae3581526020017f260feff7fb1334db7b454c80b73a85663e85c039aef9513e64934f8ac1631f11815250815250816000018190525060408051908101604052807f12bfed3a6f83df3a94fbb58ae7fa7fb99375c27abb8163cdcb71dac7c7e0030681526020017f25f1b7069fec5f6cdbcd9c87555ed77c948786a86672017e04c18365a03cdc2a8152508160200181905250604080519081016040528060408051908101604052807f09fed05ef030de0c1e399b4d337f5e744f39ba6da6acd8f49d3e9b8dc8ca7c9981526020017f1952e7e2a37922a5bd05088e96f07b87a727e49ad18799b67a305afe8ddb1239815250815260200160408051908101604052807f23d33966a0c42197b070b4cc1d497178b0076edb5b4e4c3067685cf09c19d6de81526020017f15feb117e69b62e1a5a116cf065cff6d1579455580ce4ef77b59185215e8f3b88152508152508160400181905250604080519081016040528060408051908101604052807f0e0fd8b392e569c916b9344e00dfe686d88cee1f99136a2800c27359e03c491081526020017f0238c4b4487422fd1a564edda0f82aa2dd85c2f97d9781b6ecd3d1e44ecd08d7815250815260200160408051908101604052807f03b59d8a8bc0f5ce13c3a453c32c2edabcdfc3e4c2371defe75b1fd6c27c8d1e81526020017f0a521b3ce114a3fca67e2136611faafa4708ee651750ebe9697b4decb1b0e205815250815250816060018190525060408051908101604052807f0cfa5c9f737e213231f15caa2f0b95659e62ec8be2636d6a97dc6a48606f61c981526020017f2aad773d7f0c5a0f258b02efd697af929e2c2087dc0b63e4afc6db1e3ad67fbd8152508160800181905250604080519081016040528060408051908101604052807f2d51188207b352ef71135a565e3171f10fd4c7d568a8db300c87852367f94d2781526020017f1de1cfe060ba133975fb33753fe04fec5ea38d80c6de8379ac67f109d0127444815250815260200160408051908101604052807f1ce3b0642a837a51676fea53907f00e36827a0743be0857b8f6c15911476346081526020017f2420b402c9841b831e0a6bed05a224cf2c12f44daf60d4a5b92df54452cb39b18152508152508160a00181905250604080519081016040528060408051908101604052807f2938167399e9c8169bee9ed40b14033a6d23ee405b880937d7df58ddb85360be81526020017f0e9daf1d4ab5a55bc7283100420ea89bde17c2f6776cb113687ccc1aec5e990c815250815260200160408051908101604052807f2f48a684ff0bd7730b87515ba25bf88c3544b3a17435d766128c8f9676b9e3e681526020017f20c2ab48c11dfb6c9ded055f4b661a40e696fab6e25b70a7bd3065f6fb641a638152508152508160c001819052506003604051805910610d0d5750595b908082528060200260200182016040528015610d4357816020015b610d306117a2565b815260200190600190039081610d285790505b508160e0018190525060408051908101604052807f032743af5aa5809c8e6343da76d92dd43f7c15a692ddffb084ea61b4e70474af81526020017f1eb75d085b9bbf0feb040cdda052614c5aa8204d4e520df69892ba0491c494e98152508160e001516000815181101515610db457fe5b9060200190602002018190525060408051908101604052807f167f6625f5c2c782daf7907d5afb10ce060874346461e009a1b5faacca7bb32481526020017f1a24ff097a88b0ae300437cecc569bec4d4ac764a1c92893b9917298de10ff1d8152508160e001516001815181101515610e2957fe5b9060200190602002018190525060408051908101604052807f19be475b291374df9bac7d64d49a2fbd64c5675fc72ddeb0bf6635974de8e3cd81526020017f0a6ec9ff3b4d61621d4068189b323ea58b5ffeecf086d506d0b11242d0e7cb798152508160e001516002815181101515610e9e57fe5b9060200190602002018190525090565b610eb6611788565b610ebe6117bc565b60008460000151826000600381101515610ed457fe5b6020020181815250508460200151826001600381101515610ef157fe5b60200201818152505083826002600381101515610f0a57fe5b602002018181525050606083608084600060076107d05a03f190508060008114610f3357610f35565bfe5b50801515610f4257600080fd5b505092915050565b610f52611788565b610f5a6117e4565b60008460000151826000600481101515610f7057fe5b6020020181815250508460200151826001600481101515610f8d57fe5b6020020181815250508360000151826002600481101515610faa57fe5b6020020181815250508360200151826003600481101515610fc757fe5b60200201818152505060608360c084600060066107d05a03f190508060008114610ff057610ff2565bfe5b50801515610fff57600080fd5b505092915050565b61100f611788565b60007f30644e72e131a029b85045b68181585d97816a916871ca8d3c208c16d87cfd4790506000836000015114801561104c575060008360200151145b1561106f576040805190810160405280600081526020016000815250915061109c565b60408051908101604052808460000151815260200182856020015181151561109357fe5b06830381525091505b50919050565b6110aa61180c565b604080519081016040528060408051908101604052807f198e9393920d483a7260bfb731fb5d25f1aa493335a9e71297e485b7aef312c281526020017f1800deef121f1e76426a00665e5c4479674322d4f75edadd46debd5cd992f6ed815250815260200160408051908101604052807f090689d0585ff075ec9e99ad690c3395bc4b313370b38ef355acdadcd122975b81526020017f12c85ea5db8c6deb4aab71808dcb408fe3d1e7690c43d37b4ce6cc0166fa7daa815250815250905090565b6000611176611833565b61117e611847565b600260405180591061118d5750595b9080825280602002602001820160405280156111c357816020015b6111b06117a2565b8152602001906001900390816111a85790505b50915060026040518059106111d55750595b90808252806020026020018201604052801561120b57816020015b6111f861185b565b8152602001906001900390816111f05790505b5090508682600081518110151561121e57fe5b906020019060200201819052508482600181518110151561123b57fe5b906020019060200201819052508581600081518110151561125857fe5b906020019060200201819052508381600181518110151561127557fe5b9060200190602002018190525061128c8282611400565b92505050949350505050565b60006112a2611833565b6112aa611847565b60036040518059106112b95750595b9080825280602002602001820160405280156112ef57816020015b6112dc6117a2565b8152602001906001900390816112d45790505b50915060036040518059106113015750595b90808252806020026020018201604052801561133757816020015b61132461185b565b81526020019060019003908161131c5790505b5090508882600081518110151561134a57fe5b906020019060200201819052508682600181518110151561136757fe5b906020019060200201819052508482600281518110151561138457fe5b90602001906020020181905250878160008151811015156113a157fe5b90602001906020020181905250858160018151811015156113be57fe5b90602001906020020181905250838160028151811015156113db57fe5b906020019060200201819052506113f28282611400565b925050509695505050505050565b600080600061140d6116fe565b6000611417611882565b60008751895114151561142957600080fd5b88519550600686029450846040518059106114415750595b90808252806020026020018201604052509350600092505b8583101561162e57888381518110151561146f57fe5b9060200190602002015160000151846000600686020181518110151561149157fe5b906020019060200201818152505088838151811015156114ad57fe5b906020019060200201516020015184600160068602018151811015156114cf57fe5b906020019060200201818152505087838151811015156114eb57fe5b9060200190602002015160000151600060028110151561150757fe5b6020020151846002600686020181518110151561152057fe5b9060200190602002018181525050878381518110151561153c57fe5b9060200190602002015160000151600160028110151561155857fe5b6020020151846003600686020181518110151561157157fe5b9060200190602002018181525050878381518110151561158d57fe5b906020019060200201516020015160006002811015156115a957fe5b602002015184600460068602018151811015156115c257fe5b906020019060200201818152505087838151811015156115de57fe5b906020019060200201516020015160016002811015156115fa57fe5b6020020151846005600686020181518110151561161357fe5b90602001906020020181815250508280600101935050611459565b6020826020870260208701600060086107d05a03f19050806000811461165357611655565bfe5b5080151561166257600080fd5b600082600060018110151561167357fe5b60200201511415965050505050505092915050565b6102406040519081016040528061169d6117a2565b81526020016116aa6117a2565b81526020016116b761185b565b81526020016116c46117a2565b81526020016116d16117a2565b81526020016116de6117a2565b81526020016116eb6117a2565b81526020016116f86117a2565b81525090565b602060405190810160405280600081525090565b6103206040519081016040528061172761185b565b81526020016117346117a2565b815260200161174161185b565b815260200161174e61185b565b815260200161175b6117a2565b815260200161176861185b565b815260200161177561185b565b81526020016117826118aa565b81525090565b604080519081016040528060008152602001600081525090565b604080519081016040528060008152602001600081525090565b6060604051908101604052806003905b60008152602001906001900390816117cc5790505090565b6080604051908101604052806004905b60008152602001906001900390816117f45790505090565b6080604051908101604052806118206118be565b815260200161182d6118be565b81525090565b602060405190810160405280600081525090565b602060405190810160405280600081525090565b60806040519081016040528061186f6118be565b815260200161187c6118be565b81525090565b6020604051908101604052806001905b60008152602001906001900390816118925790505090565b602060405190810160405280600081525090565b60408051908101604052806002905b60008152602001906001900390816118cd57905050905600a165627a7a72305820942a7ac9d560140347eb943109f723ace079df1626c64cd625b1b4b27437ca5c0029",
  "source": "pragma solidity ^0.4.14;\n\nlibrary Pairing {\n    struct G1Point {\n        uint X;\n        uint Y;\n    }\n    // Encoding of field elements is: X[0] * z + X[1]\n    struct G2Point {\n        uint[2] X;\n        uint[2] Y;\n    }\n    /// @return the generator of G1\n    function P1() pure internal returns (G1Point) {\n        return G1Point(1, 2);\n    }\n    /// @return the generator of G2\n    function P2() pure internal returns (G2Point) {\n        return G2Point(\n            [11559732032986387107991004021392285783925812861821192530917403151452391805634,\n             10857046999023057135944570762232829481370756359578518086990519993285655852781],\n            [4082367875863433681332203403145435568316851327593401208105741076214120093531,\n             8495653923123431417604973247489272438418190587263600148770280649306958101930]\n        );\n    }\n    /// @return the negation of p, i.e. p.add(p.negate()) should be zero.\n    function negate(G1Point p) pure internal returns (G1Point) {\n        // The prime q in the base field F_q for G1\n        uint q = 21888242871839275222246405745257275088696311157297823662689037894645226208583;\n        if (p.X == 0 && p.Y == 0)\n            return G1Point(0, 0);\n        return G1Point(p.X, q - (p.Y % q));\n    }\n    /// @return the sum of two points of G1\n    function addition(G1Point p1, G1Point p2) internal returns (G1Point r) {\n        uint[4] memory input;\n        input[0] = p1.X;\n        input[1] = p1.Y;\n        input[2] = p2.X;\n        input[3] = p2.Y;\n        bool success;\n        assembly {\n            success := call(sub(gas, 2000), 6, 0, input, 0xc0, r, 0x60)\n            // Use \"invalid\" to make gas estimation work\n            switch success case 0 { invalid() }\n        }\n        require(success);\n    }\n    /// @return the product of a point on G1 and a scalar, i.e.\n    /// p == p.scalar_mul(1) and p.add(p) == p.scalar_mul(2) for all points p.\n    function scalar_mul(G1Point p, uint s) internal returns (G1Point r) {\n        uint[3] memory input;\n        input[0] = p.X;\n        input[1] = p.Y;\n        input[2] = s;\n        bool success;\n        assembly {\n            success := call(sub(gas, 2000), 7, 0, input, 0x80, r, 0x60)\n            // Use \"invalid\" to make gas estimation work\n            switch success case 0 { invalid() }\n        }\n        require (success);\n    }\n    /// @return the result of computing the pairing check\n    /// e(p1[0], p2[0]) *  .... * e(p1[n], p2[n]) == 1\n    /// For example pairing([P1(), P1().negate()], [P2(), P2()]) should\n    /// return true.\n    function pairing(G1Point[] p1, G2Point[] p2) internal returns (bool) {\n        require(p1.length == p2.length);\n        uint elements = p1.length;\n        uint inputSize = elements * 6;\n        uint[] memory input = new uint[](inputSize);\n        for (uint i = 0; i < elements; i++)\n        {\n            input[i * 6 + 0] = p1[i].X;\n            input[i * 6 + 1] = p1[i].Y;\n            input[i * 6 + 2] = p2[i].X[0];\n            input[i * 6 + 3] = p2[i].X[1];\n            input[i * 6 + 4] = p2[i].Y[0];\n            input[i * 6 + 5] = p2[i].Y[1];\n        }\n        uint[1] memory out;\n        bool success;\n        assembly {\n            success := call(sub(gas, 2000), 8, 0, add(input, 0x20), mul(inputSize, 0x20), out, 0x20)\n            // Use \"invalid\" to make gas estimation work\n            switch success case 0 { invalid() }\n        }\n        require(success);\n        return out[0] != 0;\n    }\n    /// Convenience method for a pairing check for two pairs.\n    function pairingProd2(G1Point a1, G2Point a2, G1Point b1, G2Point b2) internal returns (bool) {\n        G1Point[] memory p1 = new G1Point[](2);\n        G2Point[] memory p2 = new G2Point[](2);\n        p1[0] = a1;\n        p1[1] = b1;\n        p2[0] = a2;\n        p2[1] = b2;\n        return pairing(p1, p2);\n    }\n    /// Convenience method for a pairing check for three pairs.\n    function pairingProd3(\n            G1Point a1, G2Point a2,\n            G1Point b1, G2Point b2,\n            G1Point c1, G2Point c2\n    ) internal returns (bool) {\n        G1Point[] memory p1 = new G1Point[](3);\n        G2Point[] memory p2 = new G2Point[](3);\n        p1[0] = a1;\n        p1[1] = b1;\n        p1[2] = c1;\n        p2[0] = a2;\n        p2[1] = b2;\n        p2[2] = c2;\n        return pairing(p1, p2);\n    }\n    /// Convenience method for a pairing check for four pairs.\n    function pairingProd4(\n            G1Point a1, G2Point a2,\n            G1Point b1, G2Point b2,\n            G1Point c1, G2Point c2,\n            G1Point d1, G2Point d2\n    ) internal returns (bool) {\n        G1Point[] memory p1 = new G1Point[](4);\n        G2Point[] memory p2 = new G2Point[](4);\n        p1[0] = a1;\n        p1[1] = b1;\n        p1[2] = c1;\n        p1[3] = d1;\n        p2[0] = a2;\n        p2[1] = b2;\n        p2[2] = c2;\n        p2[3] = d2;\n        return pairing(p1, p2);\n    }\n}\ncontract Verifier1 {\n    using Pairing for *;\n    struct VerifyingKey {\n        Pairing.G2Point A;\n        Pairing.G1Point B;\n        Pairing.G2Point C;\n        Pairing.G2Point gamma;\n        Pairing.G1Point gammaBeta1;\n        Pairing.G2Point gammaBeta2;\n        Pairing.G2Point Z;\n        Pairing.G1Point[] IC;\n    }\n    struct Proof {\n        Pairing.G1Point A;\n        Pairing.G1Point A_p;\n        Pairing.G2Point B;\n        Pairing.G1Point B_p;\n        Pairing.G1Point C;\n        Pairing.G1Point C_p;\n        Pairing.G1Point K;\n        Pairing.G1Point H;\n    }\n    function verifyingKey() pure internal returns (VerifyingKey vk) {\n        vk.A = Pairing.G2Point([0x2d456667c277bd56998238d5c25fb5952ccd725450c3445e2c22ccf5fe629b54, 0x509eac93e87ff385eb900158d8d7b43c0917d7d172b5bf68a4dd237195a91d5], [0x113f5988892345e3c6137736d875988576ff6dc0f2e8134ee297112fb579ae35, 0x260feff7fb1334db7b454c80b73a85663e85c039aef9513e64934f8ac1631f11]);\n        vk.B = Pairing.G1Point(0x12bfed3a6f83df3a94fbb58ae7fa7fb99375c27abb8163cdcb71dac7c7e00306, 0x25f1b7069fec5f6cdbcd9c87555ed77c948786a86672017e04c18365a03cdc2a);\n        vk.C = Pairing.G2Point([0x9fed05ef030de0c1e399b4d337f5e744f39ba6da6acd8f49d3e9b8dc8ca7c99, 0x1952e7e2a37922a5bd05088e96f07b87a727e49ad18799b67a305afe8ddb1239], [0x23d33966a0c42197b070b4cc1d497178b0076edb5b4e4c3067685cf09c19d6de, 0x15feb117e69b62e1a5a116cf065cff6d1579455580ce4ef77b59185215e8f3b8]);\n        vk.gamma = Pairing.G2Point([0xe0fd8b392e569c916b9344e00dfe686d88cee1f99136a2800c27359e03c4910, 0x238c4b4487422fd1a564edda0f82aa2dd85c2f97d9781b6ecd3d1e44ecd08d7], [0x3b59d8a8bc0f5ce13c3a453c32c2edabcdfc3e4c2371defe75b1fd6c27c8d1e, 0xa521b3ce114a3fca67e2136611faafa4708ee651750ebe9697b4decb1b0e205]);\n        vk.gammaBeta1 = Pairing.G1Point(0xcfa5c9f737e213231f15caa2f0b95659e62ec8be2636d6a97dc6a48606f61c9, 0x2aad773d7f0c5a0f258b02efd697af929e2c2087dc0b63e4afc6db1e3ad67fbd);\n        vk.gammaBeta2 = Pairing.G2Point([0x2d51188207b352ef71135a565e3171f10fd4c7d568a8db300c87852367f94d27, 0x1de1cfe060ba133975fb33753fe04fec5ea38d80c6de8379ac67f109d0127444], [0x1ce3b0642a837a51676fea53907f00e36827a0743be0857b8f6c159114763460, 0x2420b402c9841b831e0a6bed05a224cf2c12f44daf60d4a5b92df54452cb39b1]);\n        vk.Z = Pairing.G2Point([0x2938167399e9c8169bee9ed40b14033a6d23ee405b880937d7df58ddb85360be, 0xe9daf1d4ab5a55bc7283100420ea89bde17c2f6776cb113687ccc1aec5e990c], [0x2f48a684ff0bd7730b87515ba25bf88c3544b3a17435d766128c8f9676b9e3e6, 0x20c2ab48c11dfb6c9ded055f4b661a40e696fab6e25b70a7bd3065f6fb641a63]);\n        vk.IC = new Pairing.G1Point[](3);\n        vk.IC[0] = Pairing.G1Point(0x32743af5aa5809c8e6343da76d92dd43f7c15a692ddffb084ea61b4e70474af, 0x1eb75d085b9bbf0feb040cdda052614c5aa8204d4e520df69892ba0491c494e9);\n        vk.IC[1] = Pairing.G1Point(0x167f6625f5c2c782daf7907d5afb10ce060874346461e009a1b5faacca7bb324, 0x1a24ff097a88b0ae300437cecc569bec4d4ac764a1c92893b9917298de10ff1d);\n        vk.IC[2] = Pairing.G1Point(0x19be475b291374df9bac7d64d49a2fbd64c5675fc72ddeb0bf6635974de8e3cd, 0xa6ec9ff3b4d61621d4068189b323ea58b5ffeecf086d506d0b11242d0e7cb79);\n    }\n    function verify(uint[] input, Proof proof) internal returns (uint) {\n        VerifyingKey memory vk = verifyingKey();\n        require(input.length + 1 == vk.IC.length);\n        // Compute the linear combination vk_x\n        Pairing.G1Point memory vk_x = Pairing.G1Point(0, 0);\n        for (uint i = 0; i < input.length; i++)\n            vk_x = Pairing.addition(vk_x, Pairing.scalar_mul(vk.IC[i + 1], input[i]));\n        vk_x = Pairing.addition(vk_x, vk.IC[0]);\n        if (!Pairing.pairingProd2(proof.A, vk.A, Pairing.negate(proof.A_p), Pairing.P2())) return 1;\n        if (!Pairing.pairingProd2(vk.B, proof.B, Pairing.negate(proof.B_p), Pairing.P2())) return 2;\n        if (!Pairing.pairingProd2(proof.C, vk.C, Pairing.negate(proof.C_p), Pairing.P2())) return 3;\n        if (!Pairing.pairingProd3(\n            proof.K, vk.gamma,\n            Pairing.negate(Pairing.addition(vk_x, Pairing.addition(proof.A, proof.C))), vk.gammaBeta2,\n            Pairing.negate(vk.gammaBeta1), proof.B\n        )) return 4;\n        if (!Pairing.pairingProd3(\n                Pairing.addition(vk_x, proof.A), proof.B,\n                Pairing.negate(proof.H), vk.Z,\n                Pairing.negate(proof.C), Pairing.P2()\n        )) return 5;\n        return 0;\n    }\n    event Verified(string);\n    function verifyTx(\n            uint[2] a,\n            uint[2] a_p,\n            uint[2][2] b,\n            uint[2] b_p,\n            uint[2] c,\n            uint[2] c_p,\n            uint[2] h,\n            uint[2] k,\n            uint[2] input\n        ) public returns (bool r) {\n        Proof memory proof;\n        proof.A = Pairing.G1Point(a[0], a[1]);\n        proof.A_p = Pairing.G1Point(a_p[0], a_p[1]);\n        proof.B = Pairing.G2Point([b[0][0], b[0][1]], [b[1][0], b[1][1]]);\n        proof.B_p = Pairing.G1Point(b_p[0], b_p[1]);\n        proof.C = Pairing.G1Point(c[0], c[1]);\n        proof.C_p = Pairing.G1Point(c_p[0], c_p[1]);\n        proof.H = Pairing.G1Point(h[0], h[1]);\n        proof.K = Pairing.G1Point(k[0], k[1]);\n        uint[] memory inputValues = new uint[](input.length);\n        for(uint i = 0; i < input.length; i++){\n            inputValues[i] = input[i];\n        }\n        if (verify(inputValues, proof) == 0) {\n            emit Verified(\"Transaction successfully verified.\");\n            return true;\n        } else {\n            return false;\n        }\n    }\n}\n",
  "sourcePath": "/home/lovesh/dev/ethereum/playground/learning-solidity/factor/contracts/FactorVerifier.sol",
  "compiler": {
    "name": "solc",
    "version": "0.4.21+commit.dfe3193c.Emscripten.clang"
  },
  "schemaVersion": "2.0.0",
  "updatedAt": "2018-04-13T22:20:15.157Z"
}